{
  "address": "0x23739b1be24175230d3d7815ec2b9a86568e819c",
  "abi": [
    {
      "inputs": [
        {
          "internalType": "address",
          "name": "priceFeedAddress",
          "type": "address"
        }
      ],
      "stateMutability": "nonpayable",
      "type": "constructor"
    },
    {
      "inputs": [],
      "name": "Fundme__NotOwner",
      "type": "error"
    },
    {
      "inputs": [],
      "name": "Withdraw",
      "outputs": [],
      "stateMutability": "nonpayable",
      "type": "function"
    },
    {
      "inputs": [],
      "name": "cheaperWithdraw",
      "outputs": [],
      "stateMutability": "nonpayable",
      "type": "function"
    },
    {
      "inputs": [],
      "name": "fund",
      "outputs": [],
      "stateMutability": "payable",
      "type": "function"
    },
    {
      "inputs": [
        {
          "internalType": "address",
          "name": "fundingAddress",
          "type": "address"
        }
      ],
      "name": "getAddressToAmountFunded",
      "outputs": [
        {
          "internalType": "uint256",
          "name": "",
          "type": "uint256"
        }
      ],
      "stateMutability": "view",
      "type": "function"
    },
    {
      "inputs": [
        {
          "internalType": "uint256",
          "name": "index",
          "type": "uint256"
        }
      ],
      "name": "getFunder",
      "outputs": [
        {
          "internalType": "address",
          "name": "",
          "type": "address"
        }
      ],
      "stateMutability": "view",
      "type": "function"
    },
    {
      "inputs": [],
      "name": "getOwner",
      "outputs": [
        {
          "internalType": "address",
          "name": "",
          "type": "address"
        }
      ],
      "stateMutability": "view",
      "type": "function"
    },
    {
      "inputs": [],
      "name": "getPriceFeed",
      "outputs": [
        {
          "internalType": "contract AggregatorV3Interface",
          "name": "",
          "type": "address"
        }
      ],
      "stateMutability": "view",
      "type": "function"
    },
    {
      "inputs": [],
      "name": "getVersion",
      "outputs": [
        {
          "internalType": "uint256",
          "name": "",
          "type": "uint256"
        }
      ],
      "stateMutability": "view",
      "type": "function"
    }
  ],
  "transactionHash": "0x0622e435549adb4b0ebf81a11f145463ad4ed74c1501c13b57044ac79848a2cf",
  "args": [
    "0x694AA1769357215DE4FAC081bf1f309aDC325306"
  ],
  "numDeployments": 1,
  "solcInputHash": "6877dd0a7d1e2a11b9fb1c18dd4b2ab9",
  "bytecode": "0x60a06040523480156200001157600080fd5b506040516200134d3803806200134d833981810160405281019062000037919062000120565b3373ffffffffffffffffffffffffffffffffffffffff1660808173ffffffffffffffffffffffffffffffffffffffff1660601b8152505080600260006101000a81548173ffffffffffffffffffffffffffffffffffffffff021916908373ffffffffffffffffffffffffffffffffffffffff1602179055505062000152565b600080fd5b600073ffffffffffffffffffffffffffffffffffffffff82169050919050565b6000620000e882620000bb565b9050919050565b620000fa81620000db565b81146200010657600080fd5b50565b6000815190506200011a81620000ef565b92915050565b600060208284031215620001395762000138620000b6565b5b6000620001498482850162000109565b91505092915050565b60805160601c6111ce6200017f600039600081816102a5015281816104e7015261066001526111ce6000f3fe60806040526004361061007b5760003560e01c80639e87a5cd1161004e5780639e87a5cd1461012a578063b60d428814610155578063be2693f01461015f578063d7b4750c146101765761007b565b80630343fb25146100805780630d8e6e2c146100bd57806357ea89b6146100e8578063893d20e8146100ff575b600080fd5b34801561008c57600080fd5b506100a760048036038101906100a29190610b2f565b6101b3565b6040516100b49190610b75565b60405180910390f35b3480156100c957600080fd5b506100d26101fc565b6040516100df9190610b75565b60405180910390f35b3480156100f457600080fd5b506100fd6102a3565b005b34801561010b57600080fd5b506101146104e3565b6040516101219190610b9f565b60405180910390f35b34801561013657600080fd5b5061013f61050b565b60405161014c9190610c19565b60405180910390f35b61015d610535565b005b34801561016b57600080fd5b5061017461065e565b005b34801561018257600080fd5b5061019d60048036038101906101989190610c60565b610902565b6040516101aa9190610b9f565b60405180910390f35b6000600160008373ffffffffffffffffffffffffffffffffffffffff1673ffffffffffffffffffffffffffffffffffffffff168152602001908152602001600020549050919050565b6000600260009054906101000a900473ffffffffffffffffffffffffffffffffffffffff1673ffffffffffffffffffffffffffffffffffffffff166354fd4d506040518163ffffffff1660e01b815260040160206040518083038186803b15801561026657600080fd5b505afa15801561027a573d6000803e3d6000fd5b505050506040513d601f19601f8201168201806040525081019061029e9190610ca2565b905090565b7f000000000000000000000000000000000000000000000000000000000000000073ffffffffffffffffffffffffffffffffffffffff163373ffffffffffffffffffffffffffffffffffffffff1614610328576040517f85db10ab00000000000000000000000000000000000000000000000000000000815260040160405180910390fd5b60005b6000805490508110156103d357600080828154811061034d5761034c610ccf565b5b9060005260206000200160009054906101000a900473ffffffffffffffffffffffffffffffffffffffff1690506000600160008373ffffffffffffffffffffffffffffffffffffffff1673ffffffffffffffffffffffffffffffffffffffff168152602001908152602001600020819055505080806103cb90610d2d565b91505061032b565b50600067ffffffffffffffff8111156103ef576103ee610d76565b5b60405190808252806020026020018201604052801561041d5781602001602082028036833780820191505090505b5060009080519060200190610433929190610a25565b5060003373ffffffffffffffffffffffffffffffffffffffff164760405161045a90610dd6565b60006040518083038185875af1925050503d8060008114610497576040519150601f19603f3d011682016040523d82523d6000602084013e61049c565b606091505b50509050806104e0576040517f08c379a00000000000000000000000000000000000000000000000000000000081526004016104d790610e48565b60405180910390fd5b50565b60007f0000000000000000000000000000000000000000000000000000000000000000905090565b6000600260009054906101000a900473ffffffffffffffffffffffffffffffffffffffff16905090565b6802b5e3af16b1880000610574600260009054906101000a900473ffffffffffffffffffffffffffffffffffffffff163461094990919063ffffffff16565b10156105b5576040517f08c379a00000000000000000000000000000000000000000000000000000000081526004016105ac90610eb4565b60405180910390fd5b6000339080600181540180825580915050600190039060005260206000200160009091909190916101000a81548173ffffffffffffffffffffffffffffffffffffffff021916908373ffffffffffffffffffffffffffffffffffffffff16021790555034600160003373ffffffffffffffffffffffffffffffffffffffff1673ffffffffffffffffffffffffffffffffffffffff16815260200190815260200160002081905550565b7f000000000000000000000000000000000000000000000000000000000000000073ffffffffffffffffffffffffffffffffffffffff163373ffffffffffffffffffffffffffffffffffffffff16146106e3576040517f85db10ab00000000000000000000000000000000000000000000000000000000815260040160405180910390fd5b60008080548060200260200160405190810160405280929190818152602001828054801561076657602002820191906000526020600020905b8160009054906101000a900473ffffffffffffffffffffffffffffffffffffffff1673ffffffffffffffffffffffffffffffffffffffff168152602001906001019080831161071c575b5050505050905060005b81518110156107f157600082828151811061078e5761078d610ccf565b5b602002602001015190506000600160008373ffffffffffffffffffffffffffffffffffffffff1673ffffffffffffffffffffffffffffffffffffffff168152602001908152602001600020819055505080806107e990610d2d565b915050610770565b50600067ffffffffffffffff81111561080d5761080c610d76565b5b60405190808252806020026020018201604052801561083b5781602001602082028036833780820191505090505b5060009080519060200190610851929190610a25565b5060003373ffffffffffffffffffffffffffffffffffffffff164760405161087890610dd6565b60006040518083038185875af1925050503d80600081146108b5576040519150601f19603f3d011682016040523d82523d6000602084013e6108ba565b606091505b50509050806108fe576040517f08c379a00000000000000000000000000000000000000000000000000000000081526004016108f590610e48565b60405180910390fd5b5050565b600080828154811061091757610916610ccf565b5b9060005260206000200160009054906101000a900473ffffffffffffffffffffffffffffffffffffffff169050919050565b60008061095583610985565b90506000670de0b6b3a7640000858361096e9190610ed4565b6109789190610f5d565b9050809250505092915050565b6000808273ffffffffffffffffffffffffffffffffffffffff1663feaf968c6040518163ffffffff1660e01b815260040160a06040518083038186803b1580156109ce57600080fd5b505afa1580156109e2573d6000803e3d6000fd5b505050506040513d601f19601f82011682018060405250810190610a069190611006565b5050509150506402540be40081610a1d9190611081565b915050919050565b828054828255906000526020600020908101928215610a9e579160200282015b82811115610a9d5782518260006101000a81548173ffffffffffffffffffffffffffffffffffffffff021916908373ffffffffffffffffffffffffffffffffffffffff16021790555091602001919060010190610a45565b5b509050610aab9190610aaf565b5090565b5b80821115610ac8576000816000905550600101610ab0565b5090565b600080fd5b600073ffffffffffffffffffffffffffffffffffffffff82169050919050565b6000610afc82610ad1565b9050919050565b610b0c81610af1565b8114610b1757600080fd5b50565b600081359050610b2981610b03565b92915050565b600060208284031215610b4557610b44610acc565b5b6000610b5384828501610b1a565b91505092915050565b6000819050919050565b610b6f81610b5c565b82525050565b6000602082019050610b8a6000830184610b66565b92915050565b610b9981610af1565b82525050565b6000602082019050610bb46000830184610b90565b92915050565b6000819050919050565b6000610bdf610bda610bd584610ad1565b610bba565b610ad1565b9050919050565b6000610bf182610bc4565b9050919050565b6000610c0382610be6565b9050919050565b610c1381610bf8565b82525050565b6000602082019050610c2e6000830184610c0a565b92915050565b610c3d81610b5c565b8114610c4857600080fd5b50565b600081359050610c5a81610c34565b92915050565b600060208284031215610c7657610c75610acc565b5b6000610c8484828501610c4b565b91505092915050565b600081519050610c9c81610c34565b92915050565b600060208284031215610cb857610cb7610acc565b5b6000610cc684828501610c8d565b91505092915050565b7f4e487b7100000000000000000000000000000000000000000000000000000000600052603260045260246000fd5b7f4e487b7100000000000000000000000000000000000000000000000000000000600052601160045260246000fd5b6000610d3882610b5c565b91507fffffffffffffffffffffffffffffffffffffffffffffffffffffffffffffffff821415610d6b57610d6a610cfe565b5b600182019050919050565b7f4e487b7100000000000000000000000000000000000000000000000000000000600052604160045260246000fd5b600081905092915050565b50565b6000610dc0600083610da5565b9150610dcb82610db0565b600082019050919050565b6000610de182610db3565b9150819050919050565b600082825260208201905092915050565b7f63616c6c206661696c6564000000000000000000000000000000000000000000600082015250565b6000610e32600b83610deb565b9150610e3d82610dfc565b602082019050919050565b60006020820190508181036000830152610e6181610e25565b9050919050565b7f596f75206e65656420746f207370656564206d6f726520455448000000000000600082015250565b6000610e9e601a83610deb565b9150610ea982610e68565b602082019050919050565b60006020820190508181036000830152610ecd81610e91565b9050919050565b6000610edf82610b5c565b9150610eea83610b5c565b9250817fffffffffffffffffffffffffffffffffffffffffffffffffffffffffffffffff0483118215151615610f2357610f22610cfe565b5b828202905092915050565b7f4e487b7100000000000000000000000000000000000000000000000000000000600052601260045260246000fd5b6000610f6882610b5c565b9150610f7383610b5c565b925082610f8357610f82610f2e565b5b828204905092915050565b600069ffffffffffffffffffff82169050919050565b610fad81610f8e565b8114610fb857600080fd5b50565b600081519050610fca81610fa4565b92915050565b6000819050919050565b610fe381610fd0565b8114610fee57600080fd5b50565b60008151905061100081610fda565b92915050565b600080600080600060a0868803121561102257611021610acc565b5b600061103088828901610fbb565b955050602061104188828901610ff1565b945050604061105288828901610c8d565b935050606061106388828901610c8d565b925050608061107488828901610fbb565b9150509295509295909350565b600061108c82610fd0565b915061109783610fd0565b9250827f7fffffffffffffffffffffffffffffffffffffffffffffffffffffffffffffff04821160008413600084131616156110d6576110d5610cfe565b5b817f8000000000000000000000000000000000000000000000000000000000000000058312600084126000841316161561111357611112610cfe565b5b827f800000000000000000000000000000000000000000000000000000000000000005821260008413600084121616156111505761114f610cfe565b5b827f7fffffffffffffffffffffffffffffffffffffffffffffffffffffffffffffff058212600084126000841216161561118d5761118c610cfe565b5b82820290509291505056fea264697066735822122082cf85402151db381d47fb952cad41450206d373d1de2613291f404d990fe76c64736f6c63430008080033",
  "devdoc": {
    "kind": "dev",
    "methods": {},
    "version": 1
  },
  "userdoc": {
    "kind": "user",
    "methods": {},
    "version": 1
  },
  "storageLayout": {
    "storage": [
      {
        "astId": 64,
        "contract": "contracts/Fundme.sol:Fundme",
        "label": "s_funders",
        "offset": 0,
        "slot": "0",
        "type": "t_array(t_address)dyn_storage"
      },
      {
        "astId": 68,
        "contract": "contracts/Fundme.sol:Fundme",
        "label": "s_addresstoAmountfunded",
        "offset": 0,
        "slot": "1",
        "type": "t_mapping(t_address,t_uint256)"
      },
      {
        "astId": 73,
        "contract": "contracts/Fundme.sol:Fundme",
        "label": "s_priceFeed",
        "offset": 0,
        "slot": "2",
        "type": "t_contract(AggregatorV3Interface)45"
      }
    ],
    "types": {
      "t_address": {
        "encoding": "inplace",
        "label": "address",
        "numberOfBytes": "20"
      },
      "t_array(t_address)dyn_storage": {
        "base": "t_address",
        "encoding": "dynamic_array",
        "label": "address[]",
        "numberOfBytes": "32"
      },
      "t_contract(AggregatorV3Interface)45": {
        "encoding": "inplace",
        "label": "contract AggregatorV3Interface",
        "numberOfBytes": "20"
      },
      "t_mapping(t_address,t_uint256)": {
        "encoding": "mapping",
        "key": "t_address",
        "label": "mapping(address => uint256)",
        "numberOfBytes": "32",
        "value": "t_uint256"
      },
      "t_uint256": {
        "encoding": "inplace",
        "label": "uint256",
        "numberOfBytes": "32"
      }
    }
  }
}